:020000040800F2
:100000000014002045010008A1100008890E000816
:100010009D100008F90A00083B28000800000000B5
:100020000000000000000000000000002D1A000881
:10003000FD0A000800000000E7160008C71B0008C2
:100040005F0100085F0100085F0100085F01000810
:100050005F0100085F0100085F0100085F01000800
:100060005F0100085F0100085F0100085F010008F0
:100070005F0100085F0100085F0100085F010008E0
:100080005F0100085F0100085F0100085F010008D0
:100090005F0100085F0100085F0100085F010008C0
:1000A0005F0100085F0100085F0100085F010008B0
:1000B000691E000805200008212000085F010008D3
:1000C0005F0100085F0100085F0100085F01000890
:1000D0005F0100086D2500085F01000895250008F4
:1000E000C90C00085F0100085F0100085F010008FB
:1000F0005F0100085F0100085F0100085F01000860
:100100005F0100085F0100085F0100085F0100084F
:100110005F0100085F01000885200008D521000864
:100120005F0100085F0100085F0100085F0100082F
:10013000DFF80CD000F034FA004800477D360008A4
:10014000001400200648804706480047FEE7FEE707
:10015000FEE7FEE7FEE7FEE7FEE7FEE7FEE7FEE777
:10016000C91B00083101000830B505462A460B4678
:1001700012F8010B13F8014B08B1A042F8D01CB1E2
:10018000002802D06D1CF1E7284630BDCAB2401EDF
:1001900010F8011F8A4202D00029F9D100207047CF
:1001A00030B50B46014600202022012409E021FA47
:1001B00002F59D4205D303FA02F5491B04FA02F544
:1001C0002844151EA2F10102F1DC30BD2DE9F05FDB
:1001D0000546002092469B468846064681464024B6
:1001E0001BE0284641464746224600F0FAF95346AE
:1001F0005A46C01A914110D311461846224600F0C3
:10020000E1F92D1A67EB01084F4622460120002133
:1002100000F0D8F917EB00094E41201EA4F10104AB
:10022000DFDC484631462A464346BDE8F09F2DE9CB
:10023000FE4F804681EA0300C00F0C46009021F07B
:10024000004123F00045B8EB0200A94105D2404629
:10025000214690461C460B46024623F000401043C0
:1002600047D0270DC7F30A00C3F30A510290401A82
:10027000019040286BDAC3F3130040F4801B009810
:10028000924620B10023D2EB030A63EB0B0B0198DB
:100290005946C0F14002504600F094F906460D461A
:1002A00050465946019A00F0ACF910EB0800614144
:1002B000002487EA115284EAE7731A4340D0009A77
:1002C00062B3019A012A4FEA075215DC001B61EB69
:1002D00002014FF0004202EA0752CDE90042001C41
:1002E00041F5801132462B4600F0ACF903B0BDE871
:1002F000F08F40462146F9E7001B61EB0201001C2C
:1003000041F5801300185B412018A2F5001747EB58
:10031000030140EAD570B6196D4111E06D084FEA4E
:10032000360645EAC0754FEA0752001B61EB020131
:10033000001C41F5801149084FEA30000019514175
:1003400032462B4603B0BDE8F04F00F06CB9009880
:10035000012240000023D0EB020263EBE07300981F
:1003600021464FEAE074B8EB000061EB0401E9E7D5
:1003700083F000435BE781F0004158E72DE9FE4F31
:1003800081EA030404F0004421F0004100944FF09E
:10039000000B23F0004350EA01045ED052EA03044C
:1003A0005BD0C3F30A54C1F30A552C44A4F2F334CE
:1003B0000194A0FB0254C1F3130141F48011C3F373
:1003C000130343F4801301FB024400FB034E840A31
:1003D000970A44EA815447EA8357A4FB07680295C9
:1003E0008D0A05FB07854FEA932C04FB0C54270567
:1003F000029D4FEA065847EA1637B5EB08056EEB43
:10040000070C870E920E47EA811742EA8312A7FB78
:100410000201B6EB0B0164EB00042B0D43EA0C3335
:100420005E1844EB1C50DA465146E7FB0201C5F367
:1004300013044FEA0B3343EA14534FEA0432019C8E
:1004400043EA0603A4F10C040294009CCDE900B435
:1004500000F0F8F803B0BDE8F08F00200146F9E79E
:100460002DE9F04D81EA030404F0004B21F0004532
:1004700014464FF0000A23F0004150EA050220D054
:1004800054EA01021DD0C5F30A570246C5F313030F
:10049000C1F31300C1F30A5640F4801543F48013EE
:1004A000A7EB0608101BD64608F2FD3873EB0500D3
:1004B00002D308F1010801E092185B41B8F1000F86
:1004C00003DA00200146BDE8F08D00204FF48011D2
:1004D000064684460EE0171B73EB050705D3121B77
:1004E00063EB050306434CEA010C49084FEA300070
:1004F00092185B4150EA0107EDD152EA030012D095
:1005000082EA040083EA0501084305D0101BAB41D1
:1005100006D20122002306E000224FF0004302E051
:100520006FF0010253101AEB06004CEB085110EB70
:100530000A0041EB0B01BDE8F04D00F074B8C1F3C7
:100540000A52C1F3130140F2FF3341F480119A4281
:1005500002DA00200146704740F233439A42A2F289
:10056000334202DC524200F03CB800F02BB80000ED
:1005700030B5041E71F1000404DB4FF0004440422A
:1005800064EB0101141E73F1000405DB1C464FF0FF
:100590000043524263EB0403994208BF904230BDCE
:1005A000064C074D06E0E06840F0010394E80700C0
:1005B00098471034AC42F6D3FFF7BEFDA0390008CF
:1005C000C0390008202A04DB203A00FA02F100209A
:1005D00070479140C2F1200320FA03F31943904081
:1005E0007047202A04DB203A21FA02F000217047EC
:1005F00021FA02F3D040C2F120029140084319468B
:100600007047202A06DBCB17203A41FA02F043EA72
:10061000E07306E041FA02F3D040C2F120029140BB
:1006200008431946704710B5141E73F1000408DA28
:10063000401C41F1000192185B411A4301D120F0A6
:10064000010010BD2DE9F04D92469B4611B1B1FA63
:1006500081F202E0B0FA80F220329046FFF7B2FF5A
:1006600004460F4640EA0A0041EA0B0153465A4647
:10067000084313D0114653EA010019D0C8F14002D3
:100680005046FFF7AEFF05460E46504659464246D5
:10069000FFF798FF084305D0012004E020463946C3
:1006A000BDE8F08D0020054346EAE0762C43374351
:1006B0000A986305E40AA0EB08000022FD0A44EA58
:1006C00047540A3002D500200146E9E70105101918
:1006D0006941DDE9084500196941BDE8F04DA2E72F
:1006E00070B58C1810F8015B15F0070301D110F8F4
:1006F000013B2A1106D110F8012B03E010F8016B21
:1007000001F8016B5B1EF9D12B0705D40023521EA3
:100710000DD401F8013BFAE710F8013BCB1A921C0B
:1007200003E013F8015B01F8015B521EF9D5A14209
:10073000D8D3002070BD0000F8B50027002530E1B7
:10074000052F28D2DFE807F003285280A700701C8D
:10075000C6B296A20221002000F074FD00F0F4FE63
:100760000446ACB9012000F0CCFE044664B994A262
:100770000221002000F066FD96A20421002000F076
:1007800061FD0026012706E0204601F007FA02E09D
:10079000204601F003FAFCE0701CC6B292A20221CE
:1007A000002000F04FFD8BA20421002000F04AFD44
:1007B00000F0CAFE0446ACB9022000F0A2FE0446D6
:1007C00064B97FA20221002000F03CFD81A2042137
:1007D000002000F037FD0026022706E0204601F049
:1007E000DDF902E0204601F0D9F9D2E083A202212E
:1007F000002000F027FD77A20421002000F022FD58
:1008000000F007FF04465CB981A20221002000F03D
:1008100019FD70A20421002000F014FD03270EE052
:1008200080A20221002000F00DFD6AA20421002018
:1008300000F008FD204601F0B1F9002600274FF432
:10084000FA7002F08DFDA4E07BA20221002000F0EE
:10085000F9FC60A20421002000F0F4FC4FF4FA70CF
:1008600002F07EFD00F0F2FE04465CB977A20221A0
:10087000002000F0E7FC57A20421002000F0E2FC79
:10088000042703E00027204601F088F94FF47A702E
:1008900002F066FD7DE072A20021084600F0D2FC65
:1008A00073A20221002000F0CDFC76A204210020DA
:1008B00000F0C8FC2EE04FF4FA7002F051FD01F098
:1008C00073F8754908804FF4FA7002F049FD7248D8
:1008D0000088982806D100206F490880002D01DD8E
:1008E000681EC5B26C480088302806D100206A49CD
:1008F0000880632D01DA681CC5B268A20621282091
:1009000000F0A0FC012002232A460621009041208D
:1009100000F066FD60480088B028CCD100205E4918
:1009200008802946022000F0AEFE0446002C29D1A2
:1009300000F0FAFB5AA20221002000F083FC25A25D
:100940000421002000F07EFC40F2DC5002F008FDA3
:1009500000F0EAFB00205049088056A2002108461A
:1009600000F070FC58A20221102000F06BFC5AA28B
:100970000421102000F066FC5BA20621102000F08C
:1009800061FCF8BD00F0D0FB0027204601F006F91D
:1009900000BF00BF4FF4C87002F0E2FC0A2E00D185
:1009A00000E0CDE600BF00BFEBE7000020202020E4
:1009B000C7EBB0B4CAD6D6B8202020200000000073
:1009C00020202020D6B8CEC6D5FDB3A320202020DD
:1009D0000000000020202020202020202020202097
:1009E0002020202000000000202020C7EBD4D9B018
:1009F000B4D2BBB4CE202020000000002020B6D40A
:100A0000B1C8C1BDB4CED6B8CEC62020000000000B
:100A100020202020B6D4B1C8B3C9B9A620202020F8
:100A20000000000020202020B6D4B1C8CAA7B0DC46
:100A300020202020000000002020C9FAB3C9D6B829
:100A4000CEC6C4A3B0E5202000000000C9FAB3C997
:100A5000D6B8CEC6C4A3B0E5B3C9B9A6000000009D
:100A600020B0B44B34BCD32CB0B44B32BCF5200016
:100A700020202020B0B44B33B1A3B4E620202020A6
:100A8000000000002020303D3C204944203C3D39FE
:100A900039202020000000000800002049443D00CB
:100AA0002020C2BCC8EBD6B8CEC6B3C9B9A6202098
:100AB00000000000D6B8CEC6C4A3BFE9B2E2CAD4D3
:100AC000B3CCD0F2000000004B31BCFCCCEDBCD369
:100AD000D6B8CEC6000000004B33BCFCC9BEB3FD87
:100AE000D6B8CEC6000000004B35BCFCD1E9D6A478
:100AF000D6B8CEC60000000000BFFEE77047000079
:100B000038B5002444A20021084600F09BFB47A210
:100B10000221002000F096FB49A20421002000F0F1
:100B200091FB45E000F040FF4A49088008460088F4
:100B3000982805D100200880002C01DD601E84B2B9
:100B400044480088302806D1002042490880632CA0
:100B500001DA601C84B23F480088682800D141E077
:100B60003C480088182816D100203A49088000F037
:100B7000ABFC05463DB900F0D7FA37A202210020B0
:100B800000F060FB02E0284601F008F840F2DC507B
:100B900002F0E6FB26E035A20621282000F052FBF9
:100BA00001200223224606210090412000F018FC7B
:100BB00028480088B028B5D10121204600F04EFC1D
:100BC00005463DB900F0B0FA29A20221002000F04C
:100BD00039FB02E0284600F0E1FF40F2DC5002F071
:100BE000BFFB00BF00F0A0FA26A20021084600F0DB
:100BF00029FB29A20221102000F024FB2AA20421B3
:100C0000102000F01FFB2CA20621102000F01AFB80
:100C100000201049088038BD4B34BCD3204B32BC77
:100C2000F5204B33C8B7C8CF0000000020204B355B
:100C3000C7E5BFD5D6B8CEC6BFE220200000000071
:100C40004B31B7B5BBD820303D3C49443C3D3939E8
:100C5000000000000800002020C7E5BFD5D6B8CEB0
:100C6000C6BFE2B3C9B9A6200000000049443D0058
:100C70002020C9BEB3FDD6B8CEC6B3C9B9A62020C0
:100C800000000000D6B8CEC6C4A3BFE9B2E2CAD401
:100C9000B3CCD0F2000000004B31BCFCCCEDBCD397
:100CA000D6B8CEC6000000004B33BCFCC9BEB3FDB5
:100CB000D6B8CEC6000000004B35BCFCD1E9D6A4A6
:100CC000D6B8CEC60000000010B54FF4805000F03A
:100CD00023F860B100F008FD05A001F009FE4FF413
:100CE000805000F00DF84FF4805000F00FF810BD68
:100CF000BDF8C8EBD6D0B6CF31320D0A00000000E7
:100D0000014908607047000014040140014908606F
:100D10007047000014040140014600200022074BE8
:100D20001B6803EA0102054B14331B680B4013B127
:100D30000AB1012000E000207047000000040140DB
:100D4000044900E0521C11F8013B002BFAD1500875
:100D500070470000000C00202DE9F04102460025FC
:100D60000026002000230024002791F803C00CF087
:100D70000F0591F803C00CF0100CBCF1000F03D06C
:100D800091F802C04CEA050591F800C0BCF1000FD3
:100D900031D0146800202BE04FF0010C0CFA00F366
:100DA000B1F800C00CEA03069E4220D183004FF048
:100DB0000F0C0CFA03F7BC4305FA03FC4CEA0404DD
:100DC00091F803C0BCF1280F06D14FF0010C0CFACA
:100DD00000FCC2F814C00AE091F803C0BCF1480F4F
:100DE00005D14FF0010C0CFA00FCC2F810C0401CF9
:100DF0000828D1D31460B1F800C0BCF1FF0F34DD76
:100E0000546800202EE000F1080C4FF0010808FAA9
:100E10000CF3B1F800C00CEA03069E4221D1830016
:100E20004FF00F0C0CFA03F7BC4305FA03FC4CEA35
:100E3000040491F803C0BCF1280F05D100F1080C9F
:100E400008FA0CF8C2F8148091F803C0BCF1480FFE
:100E500007D100F1080C4FF0010808FA0CF8C2F8AD
:100E60001080401C0828CED35460BDE8F0810246B3
:100E7000002093680B400BB1012000E00020704778
:100E8000416170470161704700BFFEE7002001E04B
:100E9000411CC8B20A28FBDB7047000008B50121DD
:100EA000102000F09BFC4FF48070ADF80000032090
:100EB0008DF8020014208DF8030069460648FFF7FC
:100EC0004BFF4FF40070ADF8000069460248FFF791
:100ED00043FF00F01DF808BD0010014010B50120CF
:100EE000094908600949C1F8A001FFF7CFFF0020B8
:100EF00005490860FFF7CAFF00200449C1F8A001B6
:100F0000FFF7C4FF10BD0000A401224200002242EE
:100F100010B500200549086001200549C1F8A0016D
:100F2000FFF7B4FF01200149086010BDA40122426F
:100F30000000224210B501200D490860FFF7A6FF0E
:100F400001200C49C1F8A001FFF7A0FF4FF4007188
:100F50000948FFF78CFF08B1012400E000240020BD
:100F60000349091F0860FFF791FF204610BD0000EC
:100F7000A401224200002242001001407CB5054637
:100F8000EF208DF8000001208DF801001A4800685C
:100F9000000E8DF8020018480068000C8DF8030060
:100FA00015480088000A8DF80400134800788DF871
:100FB000050007208DF8060000208DF807000F4976
:100FC000088012E0012002F0CBF90C48008800F400
:100FD000004050B100200949088069460848FFF7E1
:100FE000C3F804460CB120467CBD681E80B2051EC5
:100FF000E8D100BFF8E70000C40C0020CE0C0020B0
:10100000DC0C002070B5044610210C48FFF738FFB7
:101010004FF400510A48FFF733FF052002F03CFC73
:10102000204602F039FC002002F036FC0546102173
:101030000248FFF727FF284670BD00000008014066
:10104000000C014070B505460C4610210A48FFF718
:1010500017FF4FF400510948FFF712FF042002F078
:101060001BFC284602F018FC204602F015FC10215B
:101070000148FFF707FF70BD00080140000C014068
:1010800000BF0549098801F040010029F9D0024953
:10109000091D0880704700000048004000BFFEE7BF
:1010A0007047000070B5002100230F22C47804B3FC
:1010B000154C246804F4E064C4F5E064210AC1F12D
:1010C0000403CA40447804FA03F1847814402143AD
:1010D00009010E4C0678A155047804F01F0501247F
:1010E000AC4005786D11AD0005F1E025C5F8004173
:1010F00009E0047804F01F050124AC40044D067893
:10110000761145F8264070BD0CED00E000E400E0EB
:1011100080E100E002490143024A1160704700008B
:101120000000FA050CED00E010B5002000F001F819
:1011300010BD70B50646002415E004F1B001C8B238
:1011400001F0AAFB002001F0A7FB102001F0A4FB96
:10115000002504E0304601F0B5FB681CC5B2822DC5
:10116000F8DB601CC4B2082CE7DB70BD10B5FFF7DC
:1011700095FEAE2001F090FB002001F08DFB1020C9
:1011800001F08AFB402001F087FBB02001F084FBD6
:10119000812001F081FBFF2001F07EFBA12001F006
:1011A0007BFBA62001F078FBA82001F075FB3F2017
:1011B00001F072FBC82001F06FFBD32001F06CFB43
:1011C000002001F069FBD52001F066FB802001F0D2
:1011D00063FBD82001F060FB052001F05DFBD92006
:1011E00001F05AFBF12001F057FBDA2001F054FB2B
:1011F000122001F051FBDB2001F04EFB302001F00A
:101200004BFB8D2001F048FB142001F045FBAF2083
:1012100001F042FB10BD70B504460D4605F1B0016A
:10122000C8B201F039FBA11CC1F3031141F0100059
:1012300001F032FBA11C01F00F0141F0010001F0AF
:101240002BFB70BD2DE9F047074688461646002562
:1012500080E03078A02843DD00253AE0702F04DDDF
:10126000002708F1020000F0FF0830783C4911F82F
:10127000151088422CD17078012101EB4501384AC4
:10128000515C884224D141463846FFF7C4FF002410
:1012900006E004EB4511334A505C01F013FB641C7B
:1012A000102CF6D308F10100C1B23846FFF7B3FFA6
:1012B000002407E004EB451110312A4A505C01F08C
:1012C00001FB641C102CF5D307F11000C7B204E039
:1012D0006D1C254800688542C0D300BFB61C39E0AC
:1012E0007A2F04DD002708F1020000F0FF083178B2
:1012F0001E48FEF74BFF8146B9F1000F29D0414649
:101300003846FFF788FF002409E099F800102039DB
:1013100004EB0111164A505C01F0D4FA641C082C4D
:10132000F3D308F10100C1B23846FFF774FF00247F
:101330000AE099F80010203904EB011108310C4A39
:10134000505C01F0BFFA641C082CF2D307F10800CE
:10135000C7B2761C307800287FF47BAFBDE8F087F9
:10136000000C002040060020C00C00205D0C002076
:10137000500000202DE9F04107460E46904600251A
:101380000024A8F12000C5B2812F02DD0027B01C87
:10139000C6B231463846FFF73EFF002407E004EBB3
:1013A00005110E4A505C01F08DFA601CC4B2082C85
:1013B000F5DB701CC1B23846FFF72DFF002408E0B2
:1013C00004EB05110831054A505C01F07BFA601C02
:1013D000C4B2082CF4DBBDE8F0810000500000200E
:1013E0002DE9F0470546894690461E46DDF820A0C7
:1013F00000242FE0301B401EC1B20A2002F0A0F9E9
:10140000B8FBF0F00A21B0FBF1F201FB1207A7B91B
:10141000BAF1000F08D0082101FB0451C8B23022F4
:101420004946FFF7A7FF07E0082101FB0451C8B2B6
:1014300020224946FFF79EFF0AE007F13001CAB2B9
:10144000082101FB0451C8B24946FFF793FF00BFD2
:10145000601CC4B2B442CDDBBDE8F0872DE9F04199
:1014600004460D4600F00DFB00F0E2FA012000F00A
:1014700002FB072000F00DFB0C2000F014FB2012F3
:10148000FFF7FEFDE0B2FFF7FBFD2812FFF7F8FDC6
:10149000E8B2FFF7F5FD142000EB2420E1B2084488
:1014A00000EB2520E9B200EB0108404600F0DAFA33
:1014B0004FF4FA60FFF762FD07460FB17E7A00E055
:1014C000FF263046BDE8F08170B500F0DAFA00F092
:1014D000AFFA012000F0CFFA032000F0DAFA0D2075
:1014E00000F0E1FA1126304600F0BCFA4FF4FA6041
:1014F000FFF744FD05460DB16C7A00E0FF2420465D
:1015000070BD2DE9F041054600F0BBFA00F090FAFD
:10151000012000F0B0FA042000F0BBFA022000F035
:10152000C2FA2846FFF7ACFDEF1D384600F09AFAE4
:101530004FF4FA60FFF722FD06460EB1747A00E020
:10154000FF242046BDE8F08170B500F09AFA00F063
:101550006FFA012000F08FFA032000F09AFA0120C0
:1015600000F0A1FA0526304600F07CFA4FF4FA604C
:10157000FFF704FD05460DB16C7A00E0FF2420461C
:1015800070BD2DE9F04781460D4616461F4600F016
:1015900078FA00F04DFA012000F06DFA082000F012
:1015A00078FA1B2000F07FFA4846FFF769FD281201
:1015B000FFF766FDE8B2FFF763FD3012FFF760FD4D
:1015C000F0B2FFF75DFD09F1240000EB2520E9B240
:1015D000084400EB2620F1B200EB010A504600F06F
:1015E00041FA4FF4FA60FFF7C9FC044664B194F87D
:1015F0000980E07AA17A00EB01203880607B217BB2
:1016000000EB0120788001E04FF0FF084046BDE884
:10161000F08770B500F035FA00F00AFA012000F00A
:101620002AFA032000F035FA032000F03CFA0726DE
:10163000304600F017FA4FF4FA60FFF79FFC0546BA
:101640000DB16C7A00E0FF24204670BD70B500F04B
:1016500018FA00F0EDF9012000F00DFA032000F077
:1016600018FA052000F01FFA0926304600F0FAF9B2
:101670004FF4FA60FFF782FC05460DB16C7A00E08A
:10168000FF24204670BD2DE9F04106460C4600F0CF
:10169000F8F900F0CDF9012000F0EDF9062000F096
:1016A000F8F9062000F0FFF93046FFF7E9FC2012B8
:1016B000FFF7E6FCE0B2FFF7E3FC06F10D0000EBFC
:1016C0002420E1B200EB0108404600F0CBF94FF4D2
:1016D000FA60FFF753FC07460FB17D7A00E0FF2563
:1016E0002846BDE8F081704710B500242B20FFF795
:1016F00089FC2849087000212920FFF7A3FC00215C
:101700000220FFF79FFC2348007800F01000C8B1CA
:10171000B220FFF777FC212814D1BF20FFF772FC1D
:1017200035280FD1BA20FFF76DFC0446002C05DDEB
:10173000042C03DC10201849087006E0112016491B
:10174000087002E011201449087000212B20FFF7D7
:1017500079FC00211C20FFF775FC00212920FFF7F0
:1017600071FC00210220FFF76DFC00212B20FFF708
:1017700069FC0021BA20FFF765FC0021BC20FFF7BF
:1017800061FC01210820FFF75DFC00210820FFF724
:1017900059FC10BDDB0C0020D90C002029B1064AF1
:1017A000D2690243044BDA6104E0034AD2698243FE
:1017B000014BDA61704700000010024029B1064A6F
:1017C00012690243044B1A6104E0034A126982431E
:1017D000014B1A61704700000010024029B1064A0F
:1017E00092690243044B9A6104E0034A926982437E
:1017F000014B9A61704700000010024029B1064A6F
:10180000D2680243044BDA6004E0034AD2688243A0
:10181000014BDA60704700000010024030B5002133
:101820000022002400232D4D6D6805F00C0121B12C
:10183000042905D0082923D105E0294D056022E0BF
:10184000274D05601FE0254D6D6805F47012234D8E
:101850006D6805F48034022505EB92421CB9214DD8
:10186000554305600BE01D4D6D6805F400351DB155
:101870001C4D5543056002E0194D5543056002E0DB
:10188000174D056000BF00BF144D6D6805F0F001F5
:101890000909154D6B5C0568DD4045600F4D6D68AD
:1018A00005F4E061090A104D6B5C4568DD40856018
:1018B0000A4D6D6805F46051C90A0B4D6B5C4568B3
:1018C000DD40C560054D6D6805F44041890B074D4D
:1018D0006B5CC568B5FBF3F5056130BD00100240D7
:1018E00000127A0000093D003A0000204A00002062
:1018F00000B589B001210420FFF770FF01210846DF
:10190000FFF74CFF0820ADF8200028208DF82300B9
:1019100003208DF8220008A92248FFF71DFA0821AC
:101920002048FFF7AFFA42F21070ADF814004720DC
:10193000ADF810000020ADF81600ADF8120004A9B3
:101940004FF0804000F058FD0C20ADF8040000205E
:10195000ADF806000120ADF808000020ADF80A003F
:101960000320ADF80C0001A94FF0804000F0A4FC6A
:101970000121880700F07EFC1C208DF81C0002204D
:101980008DF81D008DF81E0001208DF81F0007A89E
:10199000FFF788FB01221121880700F0E3FC09B062
:1019A00000BD00000008014010B50020154B1B7859
:1019B00003F040032BB3144B1B68190E124B1B682A
:1019C000C3F30742D343DBB28B420BD151B90E4B69
:1019D0001B88C3F307210C4B1A78D343DBB28B422D
:1019E00000D1084620B1074B1B7803F0800343B9B0
:1019F000044B1B7823F04003024C23700023034C5C
:101A0000237010BDD00C0020D40C0020D80C002076
:101A10000246002013890B400BB1012000E000209A
:101A20007047014688897047818170477047000080
:101A300010B50B490968080EFFF722FB084800683B
:101A4000C0F30740FFF71CFB05480088C0F30720E0
:101A5000FFF716FB02490878FFF712FB10BD0000E4
:101A6000C40C002010B504462012FFF709FBE0B2B9
:101A7000FFF706FB10BD10B504462046FFF700FB3C
:101A800010BD10B5EF20FFF7FBFA0120FFF7F8FAC1
:101A900010BD10B50446C4F30720FFF7F1FAE0B219
:101AA000FFF7EEFA10BD10B504462046FFF7E8FA3E
:101AB00010BD10B500F002F810BD00000CB50020FC
:101AC000019000903348006840F48030314908604C
:101AD00000BF3048006800F4003000900198401CBE
:101AE0000190009818B90198B0F5A06FF1D129487C
:101AF000006800F4003010B10120009001E00020E7
:101B000000900098012843D12348006840F010005D
:101B1000214908600846006820F003000860084674
:101B2000006840F0020008601A484068194948609F
:101B30000846406848600846406840F48060486055
:101B40000846406820F47C1048600846406840F42D
:101B5000E81048600846006840F08070086000BFE8
:101B60000C48006800F000700028F9D0094840686F
:101B700020F00300074948600846406840F0020032
:101B8000486000BF0348406800F00C000828F9D105
:101B90000CBD0000001002400020024070470428E5
:101BA00008D14FF0E021096941F004014FF0E02233
:101BB000116107E04FF0E021096921F004014FF0C5
:101BC000E02211617047704710B51348006840F07B
:101BD00001001149086008464068104908400E4954
:101BE0004860084600680E4908400B4908600846EE
:101BF000006820F4802008600846406820F4FE0059
:101C000048604FF41F008860FFF753FF4FF00060FB
:101C10000449086010BD0000001002400000FFF8F9
:101C2000FFFFF6FE08ED00E0F0B50C461546002279
:101C30000021068C4FF6FE773E400684028B018C15
:101C40004FF60C7632407E1C06EA03162E433243D2
:101C5000104EB0420ED0104EB0420BD0B0F1804FBB
:101C600008D00E4EB04205D00D4EB04202D00D4EFF
:101C7000B04206D14FF6FD76314044F001063143C3
:101C800005E04FF6F576314044F00106314302831A
:101C90000184F0BD002C01400034014000040040EC
:101CA00000080040000C0040F0B50C46154600222C
:101CB00000210026078C4FF6EF7C07EA0C0707840B
:101CC000028B018C4FF6FF7707EA041640F6FF47B8
:101CD0003A404FF6FF7707EA03373A434FF6FF776C
:101CE00007EA05273A43114FB8420ED0104FB842C9
:101CF0000BD0B0F1804F08D00E4FB84205D00E4F38
:101D0000B84202D00D4FB84206D14FF6DF773940C6
:101D100046F01007394305E04FF65F77394044F04D
:101D20001007394302830184F0BD0000002C0140FC
:101D3000003401400004004000080040000C004056
:101D4000F0B50C461546002200210026078C4FF600
:101D5000FF6C07EA0C070784828B018C4FF6FF7734
:101D600007EA04264FF60C773A404FF6FF7707EA6A
:101D700003172F433A43114FB8420ED0104FB842C9
:101D80000BD0B0F1804F08D00E4FB84205D00E4FA7
:101D9000B84202D00D4FB84206D14FF6FF57394036
:101DA00046F48077394305E04FF2FF57394044F459
:101DB0008077394382830184F0BD0000002C01400C
:101DC000003401400004004000080040000C0040C6
:101DD000F0B50C461546002200210026078C4EF671
:101DE000FF7C07EA0C070784828B018C4FF6FF7794
:101DF00007EA043640F6FF473A404FF6FF7707EA16
:101E000005273A434FF6FF7707EA03373A43114F66
:101E1000B8420ED0104FB8420BD0B0F1804F08D06E
:101E20000E4FB84205D00E4FB84202D00D4FB84207
:101E300006D14DF6FF77394046F48057394305E027
:101E400047F6FF57394044F4805739438283018471
:101E5000F0BD0000002C01400034014000040040AF
:101E600000080040000C004010B50121880700F078
:101E700011FAF8B15E48007800F08000D0B15C48FB
:101E8000007820F010005A4908700846007800F0E9
:101E90000F0020B90846007840F040000870544810
:101EA000007800F00F000E2805DA51480078401C39
:101EB0004F4908700AE04E48007820F080004C49F5
:101EC00008700846007800F0F000087010218806BD
:101ED00000F0E0F9002811D04648006878B10221EE
:101EE000480700F04EFA00214FF0804000F056FA0B
:101EF0003F48007840F010003D49087072E04FF014
:101F0000804000F0C3F93C49088000214FF0804038
:101F100000F037FA3648007800F0100000285BD057
:101F20003348007800F08000F0B333480088B0F503
:101F3000967F0DDD30480088B0F5487F08DA2F48DD
:101F4000006840002D49086008460068086043E0CA
:101F500029480088B0F5AF6F0FDD27480088B0F53D
:101F6000E16F0ADA25480068400024490860084605
:101F7000006840F0010008602EE01F48008840F62D
:101F80009801884228DD1C48008840F628218842B4
:101F900022DA1B480078401C194908701448007860
:101FA00000F0F000124900E001E0087014E012486F
:101FB000008841F2680188420EDD0F48008841F236
:101FC0005C21884208DA0A48007840F0800008491D
:101FD000087000200A4908700548007820F01000B9
:101FE000034908701121880700F041F910BD000075
:101FF000D00C00200C012142D20C0020D40C002077
:10200000D80C002010B50121044800F043F918B1A4
:102010000121024800F02BF910BD0000000400402F
:1020200010B50121144800F035F918B30121124808
:1020300000F01DF9114800684EF66021B0FBF1F286
:1020400001FB12000D4908600846006847F2305154
:10205000884204D209480068401C084908600748C3
:10206000006847F23051884204D14FF4807104482F
:10207000FEF706FF10BD0000000800401000002021
:102080000008014010B501214A4800F003F900287A
:102090007ED00121474800F0EAF847480068002850
:1020A00015DD01214548FEF7EDFE02214348FEF70C
:1020B000E7FE10214148FEF7E5FE20213F48FEF7EC
:1020C000DFFE3F480068401C3D49086017E00221E0
:1020D0003A48FEF7D7FE01213848FEF7D1FE20210D
:1020E0003648FEF7CFFE10213448FEF7C9FE3448CB
:1020F000006820B132480068401E3149086031480C
:1021000000686421B0FBF1F201FB12002D49086068
:10211000084600682C49096888420BD204212748E8
:10212000FEF7B0FE40212548FEF7ACFE012027490E
:1021300008600AE004212148FEF7A2FE40211F4862
:10214000FEF79EFE0020214908601D4800682049D6
:10215000884204D21B480068401C1A49086016488F
:10216000006800280EDA1648006858B900211148A6
:1021700000F080F804211148FEF782FE40210F484C
:10218000FEF77EFE0C480068002812DD0C4800E0D7
:102190000FE000680E4988420BD10021054800F08D
:1021A00069F804210548FEF76BFE40210348FEF75D
:1021B00067FE10BD00100040040000200010014028
:1021C0000C000020140000201800002020012142F3
:1021D000A086010010B50121094800F05BF868B144
:1021E0000848008840F4004006490880012104485E
:1021F00000F03DF80021024800F03CF810BD00005E
:1022000000140040CE0C00207FB505460C4601218D
:102210002020FFF7C3FAADF80450ADF800400020CD
:10222000ADF80600ADF8020069460E4800F0E4F88B
:10223000012211460B4800F095F80121094800F0F1
:1022400019F837208DF80C0000208DF80D000220C1
:102250008DF80E0001208DF80F0003A8FEF722FF75
:102260007FBD000000140040CA4302827047CA4389
:102270000282704721B1028842F00102028004E02C
:1022800002884FF6FE731A40028070470146B1F88B
:102290004000704730B50246002000230024158A14
:1022A00005EA0103958905EA010413B10CB1012087
:1022B00000E0002030BD000070B505460C46244803
:1022C00085420ED0234885420BD0B5F1804F08D00F
:1022D0002148854205D02148854202D020488542C8
:1022E00000D100E000BF208850B92389A28861880E
:1022F0002846FFF799FCE188284600F051F825E0D0
:10230000208804280AD12389A28861882846FFF7FB
:10231000CBFCE188284600F04CF817E0208808281C
:102320000AD12389A28861882846FFF709FDE18840
:10233000284600F04BF809E02389A28861882846E6
:10234000FFF746FDE188284600F049F870BD00001F
:10235000002C01400034014000040040000800400F
:10236000000C00401AB183890B43838102E083890A
:102370008B438381704701894FF6F87211400181C8
:1023800070470A460021018C4DF6FF7319404FF645
:10239000FF7303EA02331943018470478184704755
:1023A000028B4FF6F3731A400283028B0A430283B7
:1023B0007047028B4FF2FF331A400283028B4FF6B5
:1023C000FF7303EA01231A4302837047828B4FF69F
:1023D000F3731A408283828B0A4382837047828B15
:1023E0004FF2FF331A408283828B4FF6FF7303EA6A
:1023F00001231A4382837047002202881D4B9842B2
:102400000ED01D4B98420BD0B0F1804F08D01B4B23
:10241000984205D01A4B984202D01A4B984204D1E8
:102420004FF68F731A404B881A43174B984207D0C8
:10243000164B984204D04FF6FF431A40CB881A43FC
:1024400002808B8883850B8803850A4B98420BD0CA
:10245000094B984208D00E4B984205D00D4B98423C
:1024600002D00D4B984201D10B7A0386012383825F
:1024700070470000002C014000340140000400407F
:1024800000080040000C0040001000400014004014
:102490000040014000440140004801401FB50121B7
:1024A0000420FFF77BF91648FFF765FF0020ADF821
:1024B0000A00ADF8060042F20F70ADF8080041F6D0
:1024C0001F40ADF8040001A90E48FFF795FF012158
:1024D0000B48FFF7C9FE012211460948FFF742FFEA
:1024E0001E208DF8000001208DF8030002208DF8D9
:1024F000010001208DF802006846FEF7D3FD1FBDE4
:1025000000080040001000401FB501211020FFF717
:1025100045F91548FFF72FFF0020ADF80A00ADF888
:1025200006006320ADF808002320ADF8040001A9DF
:102530000D48FFF761FF01210B48FFF795FE0122CF
:1025400011460948FFF70EFF36208DF800000120E4
:102550008DF8030000208DF8010002208DF80200A4
:102560006846FEF79FFD1FBD0010004010B540F209
:102570002551064800F0A0F838B1044800F058F999
:10258000C4B2214602A000F0B3F910BD00380140EA
:102590002563000010B540F22551164800F08CF874
:1025A000F8B1144800F044F9C4B21348008800F4AC
:1025B0000040B0B910480088B0F5C87F12DA002199
:1025C0000E48FFF7EBFE0C48008818B901210B48B4
:1025D000FFF750FE08490888411C074A1180084946
:1025E0000C5405E00448008840F40040024908808B
:1025F00010BD000000480040CE0C00200014004038
:10260000DC0C002021B1828942F40052828104E076
:1026100082894DF6FF731A408281704710B50446D7
:102620002048844209D101218803FFF7E7F80021FF
:102630004FF48040FFF7E2F832E01B48844209D1B2
:1026400001214804FFF7BAF800214FF40030FFF7EA
:10265000B5F825E01548844209D101218804FFF727
:10266000ADF800214FF48020FFF7A8F818E01048DB
:10267000844209D10121C804FFF7A0F800214FF4DA
:102680000020FFF79BF80BE00A48844208D10121A3
:102690000805FFF793F800214FF48010FFF78EF83C
:1026A00010BD0000003801400044004000480040D8
:1026B000004C00400050004070B50246002400234A
:1026C0000025002040F66A16B14200D100BFC1F3D8
:1026D000421501F01F03012606FA03F3012D02D172
:1026E0009689334006E0022D02D1168A334001E07C
:1026F000968A33400C12012606FA04F416883440F8
:1027000013B10CB1012000E0002070BDF0B503460C
:10271000002400260025002040F66A17B94200D1A7
:1027200000BF1846C1F3421401F01F06012707FA43
:1027300006F5012C01D10C3004E0022C01D110303F
:1027400000E014301AB107682F43076002E0076801
:10275000AF430760F0BD00002DE9F04786B00546A5
:102760000E460024A24600BFA1460027B08900B152
:1027700000BF2F462C8A4CF6FF700440F0880443BB
:102780002C82AC894EF6F3100440B088318908439E
:10279000718908430443AC81AC8A4FF6FF40044082
:1027A000B0890443AC8201A8FFF738F81F4887427C
:1027B00002D1DDF810A001E0DDF80CA0A88900F43A
:1027C000004040B10AEBCA0000EB0A103168490032
:1027D000B0FBF1F807E00AEBCA0000EB0A10316821
:1027E0008900B0FBF1F86420B8FBF0F00401200987
:1027F000642101FB1089A88900F4004040B1322017
:1028000000EBC900B0FBF1F000F00700044308E062
:10281000322000EB09106421B0FBF1F000F00F0052
:1028200004432C8106B0BDE8F08700000038014069
:1028300001468888C0F30800704700BFFEE700002B
:1028400070B50446002520E004F0800018B1012096
:102850000F49086002E000200D490860FEF716FBF2
:1028600001200B49091F0860FEF710FB00200949F1
:10287000C1F8A001072D02D10120054908606006BA
:10288000040EFEF703FB681CC5B2082DDCDB70BD2F
:10289000A40122420000224210B50446FEF71EFBAE
:1028A0007820FFF7CDFFFEF745FB0020FFF7C8FFBC
:1028B000FEF740FB2046FFF7C3FFFEF73BFBFEF7AA
:1028C00027FB10BD10B50446FEF708FB7820FFF784
:1028D000B7FFFEF72FFB4020FFF7B2FFFEF72AFB02
:1028E0002046FFF7ADFFFEF725FBFEF711FB10BDFD
:1028F0000FB4054B10B503A9044A029800F0EEF896
:1029000010BC5DF814FB0000AD330008340000205B
:102910000FB4084B10B504A902AA039800F0DEF822
:10292000044602A9002000F070FC204610BC5DF8AF
:1029300014FB00000B32000802E008C8121F08C197
:10294000002AFAD170477047002001E001C1121F30
:10295000002AFBD1704700002DE9FF5F82B0002103
:10296000DDE90430020DDDF840B0034318D044F631
:102970001050A2F2FF3242431514119801281FD0C3
:10298000A5EB0B00401C5FEA000A4FF000064E4F1B
:10299000DFF83891B046504615D5CAF1000413E06F
:1029A000119801244AA3012801D16FEA0B01029872
:1029B000119AC0E90031C0E9024206B0BDE8F09FBB
:1029C000CBF10000DFE704460021404A491842EB02
:1029D0000450CDE9001012E0E00707D032463B4634
:1029E00040464946FDF7CAFC8046894632463B468A
:1029F00010461946FDF7C2FC06460F466410002C2F
:102A0000EAD1DDE90401DDE90023BAF1000F06DABD
:102A1000FDF7B4FC42464B46FDF7B0FC05E0FDF780
:102A20001FFD42464B46FDF71BFD04460E460022A5
:102A3000284BFDF79DFD03D84FF0FF30014607E01E
:102A40000022254B20463146FDF7F1FBFDF777FDCF
:102A5000102409E0002C0ADB0A220023FDF7B6FB54
:102A6000039B30321A55641E50EA0102F2D1641CF5
:102A7000039AC4F111031444119A012A03D00122CC
:102A800008430DD10AE0084304D000204FF0110B99
:102A9000119072E7A3EB0B056D1E0DE05B4504DDA5
:102AA0004FF0000205F1010504E003DA4FF00002E7
:102AB000A5F10105002AECD002981199C0E9023174
:102AC000C0E9004579E70000000014400000F03F35
:102AD000300000000000F0430000E03F2DE9FF4F10
:102AE00095B09B468946064600250FE2252877D1FA
:102AF00000242746F84A0121059400E0044316F813
:102B0000013F203B01FA03F01042F7D130782A2828
:102B100011D06FF02F033078A0F13002092A16D8B7
:102B2000059A44F0020402EB820203EB42021044D5
:102B3000761C0590EFE759F8042B0592002A03DA7A
:102B4000504244F40054059044F00204761C30785E
:102B50002E2816D116F8010F44F004042A280DD0AF
:102B60006FF02F023078A0F13003092B09D807EB62
:102B7000870302EB4303C718761CF3E759F8047B7D
:102B8000761C30786C280FD006DC4C2817D06828CB
:102B90000DD06A2814D104E0742810D07A280FD1FF
:102BA0000DE044F400140AE044F4801401E044F41D
:102BB00040147278824202D104F58014761C761C8F
:102BC000307866280BD013DC582877D009DC002831
:102BD00075D04528F6D04628F4D047281AD19DE173
:102BE00018E0632835D0642879D0652812D195E1A2
:102BF000702873D008DC6728F1D069286FD06E2860
:102C00000DD06F2806D1B5E073282CD0752875D06B
:102C1000782874D05A46179990476D1C75E1C4F313
:102C20000250022809D003280DD0D9F8001004283A
:102C30000DD00D6009F1040967E1D9F80010EA1719
:102C4000C1E90052F6E7D9F800100D80F2E70D70E7
:102C5000F0E719F8041B8DF8001000208DF8010032
:102C6000EA46012003E059F804AB4FF0FF3061075A
:102C70004FF0000102D40DE008F101018846B9428D
:102C80000FDA8045F8DB1AF808100029F4D108E0C3
:102C900008F1010188468142FADB1AF80810002980
:102CA000F6D105985B46A0EB080721463846179AEF
:102CB00000F094FA284400EB080507E04DE029E114
:102CC0000DE01AF8010B5A4617999047B8F1010820
:102CD000F7D25B4621463846179A13E142E00A22B2
:102CE0000092C4F302524FF0000A022A08D059F8A9
:102CF00004CB032A4FEAEC710AD00DE029E02AE068
:102D000009F1070121F00702F2E802C1914609E04A
:102D10000FFA8CFC4FEAEC71042A03D14FFA8CFCB9
:102D20004FEAEC71002907DA0A460021DCF1000CB9
:102D300061EB02012D2202E0220504D52B228DF841
:102D40000420012203E0E20701D02022F7E79046A9
:102D500059E00A2102E010220DE010214FF0000A94
:102D600000910BE010224FF0000A44F00404082701
:102D7000009203E008224FF0000A0092C4F30252CE
:102D8000022A05D059F804CB0021032A08D009E013
:102D900009F1070121F00702F2E802C1914605E0BE
:102DA0001FFA8CFC042A01D10CF0FF0C4FF0000834
:102DB000220728D5702806D0009B83F0100353EA21
:102DC0000A0305D00EE040228DF80420012208E01D
:102DD0005CEA010206D030228DF804208DF805004F
:102DE00002229046009B83F0080353EA0A030AD1AB
:102DF0005CEA010201D1620705D530228DF804207A
:102E00004FF001087F1E582804D034A003900EA86C
:102E100002900DE036A0F9E753466046009AFDF7B0
:102E2000D5F984460398825C0298401E0290027095
:102E30005CEA0100F0D1029806A9081A00F1200A04
:102E4000600702D524F4803400E00127574502DDF5
:102E5000A7EB0A0000E0002000EB0A0100900598B3
:102E60004144401A0590E00306D45B462146179A78
:102E7000059800F0B3F90544002706E001A85A467A
:102E8000C05D179990476D1C7F1C4745F6DBE0033A
:102E90000CD55B462146179A059800F09FF905442A
:102EA00004E030205A46179990476D1C0099481E3F
:102EB00000900029F5DC08E0029802995A46007853
:102EC000491C0291179990476D1CBAF10001AAF1B3
:102ED000010AF1DC65E100000928010030313233DC
:102EE0003435363738396162636465660000000046
:102EF0003031323334353637383941424344454630
:102F00000000000000F058F90544761C30780028D5
:102F10007FF4ECAD19B02846BDE8F08F620700D40D
:102F2000062709F1070222F0070CFCE80223E1461C
:102F300003F000485FEA080C02D00FF2702C0DE09D
:102F40005FEA045C02D50FF2682C07E05FEAC47CFC
:102F500002D00FF2602C01E0AFF2700C4FF0FF389E
:102F600023F00043CDF850C065280CD006DC45287E
:102F700009D046281DD047283DD13DE0662818D00D
:102F800067287ED138E00021112F01DB112000E0FD
:102F9000781CCDE9000106A90EA8FFF7DDFCDDE9EC
:102FA0000F010E9A03910021009207F1010A04918A
:102FB0004DE04FF000400097CDE9011006A90EA8A2
:102FC000FFF7CAFCDDE90F0203920E9B1199002264
:102FD000DDF80CA00093049211B9791C00EB010AF2
:102FE000B7EB0A0004D4C0F1FF3007F1010A0490E6
:102FF000AAEB0700019044E0012F00DA012700212D
:10300000112F01DD112000E03846CDE9000106A9AD
:103010000EA8FFF7A1FCDDE90F010E9A0391002134
:1030200004910092BA4621070CD40399514500DA65
:103030008A46BAF1010F05DD009AAAF10101515C3F
:10304000302908D0B84202DA10F1040F06DA012163
:10305000CDE9011015E0AAF10101E9E7002805DC3E
:10306000049901440491AAEB000102E0411C51457E
:1030700000DD8A460499401A401C01904FF0004040
:103080000290200704D40198504501DBCDF804805C
:1030900000208DF84F0002980DF14F07B0F1004F5E
:1030A00025D02B200E9002984FF0020800280CDA51
:1030B000404202902D200E9007E00A210298FDF771
:1030C0006FF83031029007F8011DB8F10001A8F146
:1030D0000108F2DC02980028EFD1791E0E980870E2
:1030E000307800F0200040F0450007F8020D12A8EB
:1030F000C01B00F107081498007800B1012000EB14
:103100000A01019801EBE07105984144401A401E04
:103110000590E00306D45B462146179A059800F017
:103120005DF805441498007818B15A4617999047ED
:103130006D1CE00324D55B462146179A059800F0E4
:103140004DF805441CE00498002807DBDDE9030185
:10315000884203DD0098405C179901E01799302000
:103160005A469047049805F10105401C04900198C7
:10317000401E019004D12E205A46179990476D1C8D
:10318000BAF10001AAF1010ADDDC05E017F8010B34
:103190005A46179990476D1CB8F10001A8F1010833
:1031A000F4DC5B462146179A0598ABE62D0000003B
:1031B0002B000000200000002DE9F041044600250E
:1031C0001E461746880404D405E039462020B0473F
:1031D0006D1C641EF9D52846BDE8F0812DE9F0414B
:1031E000044600251E469046C80301D5302700E05E
:1031F0002027880404D505E041463846B0476D1CB9
:10320000641EF9D52846BDE8F0810A68531C0B609E
:103210001070704710B50024FDF786FF37A2022119
:103220000020FEF70FF80020384908804FF4FA70AC
:1032300000F096F807E0FEF7B7FB3449088008462F
:10324000008800B100E0F6E700BF4FF4FA7000F02C
:1032500087F82E480088682800D00124FDF764FF15
:103260002BA204210020FDF7EDFF00202749088054
:103270004FF4FA7000F074F807E0FEF795FB23496D
:1032800008800846008800B100E0F6E700BF4FF470
:10329000FA7000F065F81D480088682800D0012405
:1032A000FDF742FF1BA204210020FDF7CBFF002009
:1032B000164908804FF4FA7000F052F807E0FEF764
:1032C00073FB124908800846008800B100E0F6E769
:1032D00000BF4FF4FA7000F043F80C4800886828EB
:1032E00000D00124FDF720FF0BA204210020FDF7F0
:1032F000A9FF002005490880204610BD706C65615B
:10330000736520656E74657200000000080000207F
:103310002A0000002A2A00002A2A2A0010B56FF08D
:103320000400FEF73CFC0A4800680A49B0FBF1F0D3
:10333000094908700846007800EB4001C1EBC01055
:103340004FF6FF7101EAC0000449088010BD00007B
:103350001C00002000127A00300000203200002003
:103360000146114A12884A434FF0E0235A61002275
:103370009A611A46126942F001021A6100BF4FF0C9
:10338000E022106900F001021AB100F48032002A34
:10339000F5D04FF0E022126922F001024FF0E02355
:1033A0001A6100229A6170473200002000BF054A6E
:1033B000128802F04002002AF9D0C2B2014B1B1D54
:1033C0001A8070470038014008B501211020FEF72F
:1033D00005FA28208DF803004FF48060ADF8000056
:1033E00003208DF8020069462548FDF7B5FC4FF42F
:1033F00080612348FDF744FD01210420FEF7EEF92A
:103400004FF48070ADF8000010208DF80300032009
:103410008DF8020069461B48FDF79EFC4FF4807151
:103420001848FDF72FFD7F20ADF8000010208DF823
:10343000030003208DF8020069461148FDF78CFC5B
:103440004C210F48FDF71EFD8020ADF80000042040
:103450008DF8030003208DF8020069460848FDF747
:103460007BFC4FF48070ADF8000004208DF8030061
:1034700003208DF8020069460348FDF76DFC08BD86
:103480000010014000080140000C014010B56A48DE
:103490000088682826D10024FFF7BCFE04466CB9DA
:1034A000002065490880FDF747F94FF480716348B3
:1034B000FDF7E8FC00206049088012E0FDF734FECB
:1034C0005FA202210020FDF7BDFEFEF76DFA5A490A
:1034D000088000BF584800889028FBD1002056493A
:1034E000088000BF54480088982817D1FDF71CFEBB
:1034F00055A202212020FDF7A5FE00F02DF9554828
:103500000088012802D100205249088000204A4941
:1035100008804FF480714948FDF7B2FC46480088A6
:10352000182806D1FDF700FEFDF7EAFA002042490F
:1035300008804948006801281BD13F480088C0B96D
:1035400046480068A8B9FDF7EFFD3FA20221202000
:10355000FDF778FE00F000F93E480088012808D108
:103560003F49086001213F48FEF784FE00203949A9
:1035700008803A4800683C49884203D82E480088B1
:10358000522803D039480068012809D100202A496F
:103590000880401E3249086001213248FEF76AFE69
:1035A0002E4800683049884232D12D4800680028F2
:1035B0002EDD2F48006818B901212E48FEF75AFE6B
:1035C0002B48006847F2305188420DD1002028492D
:1035D0000860401E2249086000212648FEF74AFE86
:1035E00001212048FEF746FE1348008852280FD1DB
:1035F0000020114908801E490860401E18490860D3
:1036000000211C48FEF736FE01211648FEF732FE67
:103610001248006878B91248006800280BDA0021C7
:103620001048FEF727FE04211348FDF729FC40212E
:103630001148FDF725FC10BD0800002000080140DE
:103640006661696C00000000C7EBB0B4CAD6D6B89A
:103650000000000000000020280122420C00002091
:103660000400002000100040A086010020812142BB
:10367000100000200008004000100140FFF7A4FEE9
:10368000FEF70CFFFEF734F9FEF73EFFFDF758FB9F
:10369000184908604FF4A060FDF73CFDFFF73EFEBF
:1036A0004FF4614000F014F9FDF760FDFDF73CFDBB
:1036B00011A200210846FDF7C5FD14A20221102029
:1036C000FDF7C0FD15A204211020FDF7BBFD17A2D8
:1036D00006211020FDF7B6FD0BE06420FFF740FE49
:1036E000FEF762F9154908806420FFF739FEFFF7FD
:1036F000CDFEF2E7C00C0020D6B8CEC6C4A3BFE909
:10370000B2E2CAD4B3CCD0F2000000004B31BCFC12
:10371000CCEDBCD3D6B8CEC6000000004B33BCFC09
:10372000C9BEB3FDD6B8CEC6000000004B35BCFC08
:10373000D1E9D6A4D6B8CEC600000000080000200B
:1037400010B50246012000E050430B1EA1F1010418
:10375000E1B2F9D110BD000010B586B040E0FEF72F
:1037600023F92E490880FDF7EFFE0446002C37D1DF
:103770000120FDF7C6FE0446002C31D105AB6322C3
:1037800000210120FDF7FDFE0446ECB924A2022130
:103790000020FDF757FDBDF81630BDF8142025A117
:1037A0006846FFF7B5F86A4604210020FDF74AFD98
:1037B00040F2DC50FFF7D4FD40F2DC50FFF7D0FDC3
:1037C0000120204908800FE0FDF7AEFC1EA2022177
:1037D0002020FDF737FD40F2DC50FFF7C1FD03E08C
:1037E0000E4800886828BAD100BFFDF79DFC19A2D9
:1037F00000210846FDF726FD1BA202211020FDF73F
:1038000021FD1DA204211020FDF71CFD1EA2062192
:103810001020FDF717FD06B010BD000008000020C5
:103820002020D6B8CEC6D1E9D6A4B3C9B9A62020E7
:10383000000000002049443A256420B5C3B7D63AB9
:103840002564200000000020D1E9D6A4CAA7B0DC7E
:1038500000000000D6B8CEC6C4A3BFE9B2E2CAD405
:10386000B3CCD0F2000000004B31BCFCCCEDBCD39B
:10387000D6B8CEC6000000004B33BCFCC9BEB3FDB9
:10388000D6B8CEC6000000004B35BCFCD1E9D6A4AA
:10389000D6B8CEC60000000010B5044600BF022115
:1038A0000A48FEF7B5F80028F9D021460748FEF788
:1038B000BBF800BF01210548FEF7AAF80028F9D09F
:1038C0000248FEF7AEF8C0B210BD00000030014063
:1038D00010B586B0044601210820FDF77FFF0121C5
:1038E0008804FDF75BFF2A48FEF798FE4FF48060DE
:1038F000ADF8100003208DF8120018208DF8130089
:1039000004A92448FDF728FA4FF40060ADF8100030
:1039100004208DF8130004A91E48FDF71DFA009439
:103920000020ADF80400ADF80600ADF80800ADF8D1
:103930000C000C20ADF80A0069461548FEF70CFF94
:1039400001211348FEF75EFE012240F22551104886
:10395000FEF7DCFE27208DF8140002208DF81500FC
:1039600003208DF8160001208DF8170005A8FDF73B
:1039700099FB41F61F416320FEF746FC00200649F3
:10398000088000210548FEF775FC06B010BD000058
:1039900000480040000C0140CE0C00200014004004
:1039A000C039000800000020DC0C0000E006000820
:1039B000B0420008DC0C0020240700004829000861
:1039C0000118421484A24A04E00901020304060714
:1039D00008092916691A05150204060872F85233F7
:1039E0001C100C0603912C40C07803112C043F04DA
:1039F0000321367088FC0830261820FF211E14F0A1
:103A000008F033E0184D211C031E11338870000CA0
:103A1000101E2123241927211010160E45E018042A
:103A20000225071820403D020418E0692C201807E1
:103A300007174080F08040403F0202010F0102283A
:103A40003AF0CA1C01011F04912B80B066A9EB4912
:103A500001912A30A5592C146018043C6018061DE9
:103A60001EE010080810721F0F102020100FF053D6
:103A700010F83620203F20203C700808C21E302855
:103A8000242221441E3008888848082E182020202F
:103A900011CC3BC0203227070424243F241AF820ED
:103AA0002308084B19212036E0108888184B0F1185
:103AB000101E380808C8382021523F1A702E29607D
:103AC0008F1C222121221C90111D312222119019BC
:103AD00061CAC0C26A80C659081C40201050170134
:103AE00002040810204A4001114A04012119152A34
:103AF000403219251B0402F21B7048D13AF0501ACB
:103B0000360F1EC030C828E870280807182724235D
:103B1000140B6F2A387E280D203C23020227382000
:103B200008F888889F4B203FF01BC0303F1B0838A7
:103B300030191019781B08F80F194039201B100F85
:103B4000103E8888E8081010AC23201810112A03B2
:103B50005E2940223829402C221E024019A418094F
:103B6000F808203F21010121252A085229812942F4
:103B70004149112EC08080807F0E2FF888C0281800
:103B800008501C0126382F2940292F29801B20305E
:103B90001012F81AF81413203F190229204B30C0D4
:103BA000601A2074123F4BE010B06B0F10B029D098
:103BB0001AF0301980220179203F18242438504F00
:103BC000C04C888870C0140C30204B7088C11738E6
:103BD000202121221C3A189F4A188239A049D0116D
:103BE0002A1F90121F240878881BC838151C073814
:103BF0000E60191A1AF8201114033C0714073C032D
:103C00004814081868808068180820302C03032C9A
:103C100030200838C82F5950298F29102F203826D6
:103C2000212020681145FE020202257F4040401AF3
:103C30000CE0611C0106380B191D42FE191D527F54
:103C40001A04120211045A80011930D91D391621A3
:103C5000180819242222223F20AB390F115F3F118F
:103C60002020110E21311A0E104B2011104B88F814
:103C7000102A10B359401A1F3F2B22130F16F08839
:103C80008888181A20D029D1497A21176B949494E6
:103C900093603960190F4C203F21F3548098987934
:103CA0003059121AC02719D1193039311F203F2439
:103CB000022D30212A0812893069D7294B2903198E
:103CC0000BC96079A019BF2B201FDD390F9C80FF25
:103CD000A1E0191229D03BA0FF0C39501941122044
:103CE0008A01C01B3324012A190F3AE041395229B5
:103CF0000F392349603C103F202C29053F010E302D
:103D000008060170291038080F300C030C300F2CF6
:103D100049A14E312E0E31200C29621D818E701862
:103D20003059D1215721302C22213055807C02027C
:103D3000443F404072FF39083C02027C8F544040AF
:103D40003F4E02010202042F4117101010FF109085
:103D500010093F484844444442701D0444827F6631
:103D60002BFF49011941200F2030AC63100808F8DF
:103D7000090E08F80808180E2267221292804021C6
:103D8000160816214088200F1010D0FF9014E4AFC1
:103D9000A4A4A4AFE4041B040377100B894B2A1AD4
:103DA0000E1A2A4B888019F61808FF2020080808E8
:103DB000FF041AF870100F30100F884821110D03FE
:103DC0000D11214181151060028C16FE02F202FED7
:103DD0002AF8B1100B04047E018047300F10272C05
:103DE00047807FB71342CC2A90013EFF1011161076
:103DF000E6100C1028603F1010010E3040F0172420
:103E000024A4FE23222B3E2201223E18080806018C
:103E1000FF010640BD1A7F043241100EFC04040469
:103E20001415569454341404041440300F1F010127
:103E30000141817F061B050310180EEF242480E446
:103E40009C105454FF547C101C480E7F215126189E
:103E5000274445455F454544A0380B109252321E19
:103E60003252921210A011100B211840807F08309E
:103E70000409312008101010FF1010F04AF8E01A61
:103E80008061191D211A7FFA19074E80FE8282FE79
:103E90000539E113403F3D20BF403F232A4F052015
:103EA0000FFE225A8620102824E324281020202FD9
:103EB000FF040827110DA01A055F112B02FA3B1011
:103EC0000A4020504C434C502040101008184884A1
:103ED000443F404458414E6058474025404042CC02
:103EE0002D04C40404E84204180C3F1048407F40ED
:103EF000407F41414120291F1E445454547F0433C4
:103F00004440147F20101FFF15151555957E39C0AC
:103F1000100C9020988888E98E8888A8982C0242F6
:103F200081B64008844B28102847802A240137FC9A
:103F300022222223222A02013C42827F082B0202F3
:103F4000111AC20819E11901190F1A4079590429E7
:103F500001113010201808EAACA8A8AFA8A8ACEA54
:103F60000828182A3E383FFF020212221E501BF278
:103F700092012AFE051AF2502C0404FFC81F070400
:103F80000444847FD0CA80010112380B020C806087
:103F90008040300FC8085F180F02027E0180402069
:103FA00018060106182040301708488808C8381A33
:103FB00090E819EC211E20100C0304291B4380E813
:103FC000413AFEA81AFF354310081C7F2020283AEA
:103FD0003FBF12781B02E2FA5AFE041AE2E112FF16
:103FE0001D08060116044B024C421BF888011009FB
:103FF0000808FF08090AC8081480601F100C102068
:104000001F80402116182641F81D080808F80449A9
:104010007E22F0300F1030101F088848300E01400B
:1040200080403F1C40301E1A291E299E1118108105
:10403000814121110D0301030D11214181819F183F
:104040000902FA02FE4020D8173F19222F8047307C
:104050000F10675F1C081621E019FB894019412CDD
:10406000404042013A7F0619D8171010D0FF901037
:104070002008FC24E4242223E21B0403C21F8360E3
:104080001F804126A0228014020CC02EF808484848
:1040900048C2128A2C02027F9820091E925E2017C5
:1040A0003846F1158060F8071A3EFC3422223E2281
:1040B00001100DFF2011090503FF03050911201848
:1040C00008040484E41C07240116A4642404041BCB
:1040D0000201602F020242827F0201115D80808214
:1040E00092011DFE808080A0180C22241048807F41
:1040F0000408182422A0517501E21CE037804020FA
:10410000100C031D030C30403011151088C4332BE4
:10411000BEAA012ABEAF39605B0A126229301C9028
:1041200088865A1E838C1020402119111318072AE3
:1041300040C541199F180D5C44C42010E82724E4B1
:10414000342CE040180E7F10103F80601F09093F9B
:1041500049897F905342CC92FF2C3F9048432B07D4
:10416000185049203009FC24A4242222A362280EDE
:1041700040201F20584750484542454850C0500CE9
:10418000FE0202F2121212F20202FE300C7F202016
:10419000272424242720207F151060028C1E4454DD
:1041A00054547F041344401D04047E016D3E1515D4
:1041B00015559520180F0C44241404050604041406
:1041C0002444140C601B4041012A7F052A405F19DA
:1041D0007C1E24A4643DA653142424041E40300FE6
:1041E00010136F1AFF0414121010105DD6B8CEC64B
:1041F000C4A3BFE9B2E2CAD4B3CCD0F2BCFCCCEDCC
:10420000BCD3C9BEB3FDD1E9D6A4C7EBB0B4CAD6FE
:10421000D5FDB3A3D4D9D2BBB4CEB6D4B1C8C1BD39
:10422000B3C9B9A6CAA7B0DCC9FAB0E5BCF5B1A359
:10423000B4E6C2BCC8EBB5C3B7D6C8B7C8CFB7B52C
:10424000BBD8C7E5BFD5BFE280602021222324254B
:10425000262728292A2B2C2D2E2F30313233343586
:10426000363738393A3B3C3D3E3F40414243444576
:10427000464748494A4B4C4D4E4F50515253545566
:10428000565758595A5B5C5D5E5F60616263646556
:10429000666768696A6B6C6D6E6F70717273747546
:1042A000767778797A7B7C7D7E1AFF010114000095
:0400000508000145A9
:00000001FF
